{
  "contractName": "UserRegistry",
  "abi": [
    {
      "anonymous": false,
      "inputs": [
        {
          "indexed": true,
          "internalType": "address",
          "name": "userAddress",
          "type": "address"
        }
      ],
      "name": "UserRegistered",
      "type": "event"
    },
    {
      "inputs": [
        {
          "internalType": "address",
          "name": "",
          "type": "address"
        }
      ],
      "name": "registeredUsers",
      "outputs": [
        {
          "internalType": "bool",
          "name": "",
          "type": "bool"
        }
      ],
      "stateMutability": "view",
      "type": "function",
      "constant": true
    },
    {
      "inputs": [
        {
          "internalType": "uint256",
          "name": "",
          "type": "uint256"
        }
      ],
      "name": "userAddresses",
      "outputs": [
        {
          "internalType": "address",
          "name": "",
          "type": "address"
        }
      ],
      "stateMutability": "view",
      "type": "function",
      "constant": true
    },
    {
      "inputs": [
        {
          "internalType": "address",
          "name": "user",
          "type": "address"
        }
      ],
      "name": "register",
      "outputs": [],
      "stateMutability": "nonpayable",
      "type": "function"
    },
    {
      "inputs": [],
      "name": "getUserCount",
      "outputs": [
        {
          "internalType": "uint256",
          "name": "",
          "type": "uint256"
        }
      ],
      "stateMutability": "view",
      "type": "function",
      "constant": true
    }
  ],
  "bytecode": "0x608060405234801561001057600080fd5b50610513806100206000396000f3fe608060405234801561001057600080fd5b506004361061004c5760003560e01c80630e50cee5146100515780634420e48614610081578063502c9bd51461009d578063b5cb15f7146100cd575b600080fd5b61006b60048036038101906100669190610346565b6100eb565b604051610078919061038e565b60405180910390f35b61009b60048036038101906100969190610346565b61010b565b005b6100b760048036038101906100b291906103df565b610297565b6040516100c4919061041b565b60405180910390f35b6100d56102d6565b6040516100e29190610445565b60405180910390f35b60006020528060005260406000206000915054906101000a900460ff1681565b6000808273ffffffffffffffffffffffffffffffffffffffff1673ffffffffffffffffffffffffffffffffffffffff16815260200190815260200160002060009054906101000a900460ff1615610197576040517f08c379a000000000000000000000000000000000000000000000000000000000815260040161018e906104bd565b60405180910390fd5b60016000808373ffffffffffffffffffffffffffffffffffffffff1673ffffffffffffffffffffffffffffffffffffffff16815260200190815260200160002060006101000a81548160ff0219169083151502179055506001819080600181540180825580915050600190039060005260206000200160009091909190916101000a81548173ffffffffffffffffffffffffffffffffffffffff021916908373ffffffffffffffffffffffffffffffffffffffff1602179055508073ffffffffffffffffffffffffffffffffffffffff167f54db7a5cb4735e1aac1f53db512d3390390bb6637bd30ad4bf9fc98667d9b9b960405160405180910390a250565b600181815481106102a757600080fd5b906000526020600020016000915054906101000a900473ffffffffffffffffffffffffffffffffffffffff1681565b6000600180549050905090565b600080fd5b600073ffffffffffffffffffffffffffffffffffffffff82169050919050565b6000610313826102e8565b9050919050565b61032381610308565b811461032e57600080fd5b50565b6000813590506103408161031a565b92915050565b60006020828403121561035c5761035b6102e3565b5b600061036a84828501610331565b91505092915050565b60008115159050919050565b61038881610373565b82525050565b60006020820190506103a3600083018461037f565b92915050565b6000819050919050565b6103bc816103a9565b81146103c757600080fd5b50565b6000813590506103d9816103b3565b92915050565b6000602082840312156103f5576103f46102e3565b5b6000610403848285016103ca565b91505092915050565b61041581610308565b82525050565b6000602082019050610430600083018461040c565b92915050565b61043f816103a9565b82525050565b600060208201905061045a6000830184610436565b92915050565b600082825260208201905092915050565b7f5573657220616c72656164792072656769737465726564000000000000000000600082015250565b60006104a7601783610460565b91506104b282610471565b602082019050919050565b600060208201905081810360008301526104d68161049a565b905091905056fea264697066735822122042589a64a8b96413cc10ff8f6da0686577557c3053ae2b4c924968a9efe26d6664736f6c63430008130033",
  "immutableReferences": {},
  "source": "// SPDX-License-Identifier: MIT \r\npragma solidity ^0.8.0;\r\n\r\ncontract UserRegistry {\r\n    // Mapping to store user addresses and registration status\r\n    mapping(address => bool) public registeredUsers;\r\n    // Array to store user addresses\r\n    address[] public userAddresses;\r\n\r\n    // Event to emit when a user registers\r\n    event UserRegistered(address indexed userAddress);\r\n\r\n    // Function to register a user\r\n    function register(address user) public {\r\n        require(!registeredUsers[user], \"User already registered\");\r\n\r\n        registeredUsers[user] = true;\r\n        userAddresses.push(user);\r\n\r\n        emit UserRegistered(user);\r\n    }\r\n\r\n    // Function to get the count of registered users\r\n    function getUserCount() public view returns (uint256) {\r\n        return userAddresses.length;\r\n    }\r\n}\r\n",
  "sourcePath": "C:\\Users\\Yousuf\\Desktop\\etherium_tutorial\\fyp_1\\backend\\blockchain\\contracts\\UserRegistry.sol",
  "compiler": {
    "name": "solc",
    "version": "0.8.19+commit.7dd6d404.Emscripten.clang"
  },
  "schemaVersion": "3.4.16",
  "updatedAt": "2024-05-06T03:39:53.027Z",
  "networkType": "ethereum",
  "devdoc": {
    "kind": "dev",
    "methods": {},
    "version": 1
  },
  "userdoc": {
    "kind": "user",
    "methods": {},
    "version": 1
  }
}